:020000040000fa
:080000000001040000000000f3
:020000040000fa
:10020000cf8320000e8f20000e0188000000000028
:100210000c000700c03d2000010020001100070075
:10022000000020000000e000020032000000020098
:100230000000000094010200000000000040da000d
:100240000000fe004440a900000020000000e00083
:100250000300320000002000a00188004440a800f4
:100260000000060091018800800078000000eb008b
:1002700015003700e280400032a0b4009101ba00be
:10028000e280400032a0b4009102ba00e280400057
:1002900032a0b4000002eb00472bde00f507b200ed
:1002a000602ce10004003a000059eb008301e900f2
:1002b000fdff3e00040037006128e100010032002c
:1002c0000082eb00040007001101ba000200e00008
:1002d000e8ff3a00000006003159ba008301e90046
:1002e0000c0032002159ba008301e90008003200f5
:1002f0000400e00003003a00e280400032a0b400b5
:10030000f5ff370011d9ba008301e900faff3a007e
:100310008100e800e180400032a0b4000000060047
:080320000040da000000fe00bd
:020000040000fa
:0200000401f009
:04000c00fdff0000f4
:020000040000fa
:0200000401f009
:040014007fff00006a
:020000040000fa
:0200000401f009
:04001800faff0000eb
:020000040000fa
:1000080090010000900100009001000090010000a4
:100018009001000090010000900100009001000094
:10002800900100009001000090010000a60300006c
:100038009001000090010000900100009001000074
:100048009001000090010000900100009a02000059
:100058009001000090010000900100009001000054
:100068009001000090010000c4020000900100000f
:100078009001000090010000900100009001000034
:100088009001000090010000900100009001000024
:100098009001000090010000900100009001000014
:1000a8009001000090010000900100009001000004
:1000b80090010000900100009001000090010000f4
:1000c80090010000900100009001000090010000e4
:1000d80090010000900100009001000090010000d4
:1000e80090010000900100009001000090010000c4
:0800f8009001000090010000de
:020000040000fa
:1001080090010000900100009001000090010000a3
:100118009001000090010000900100009001000093
:10012800900100009001000090010000a60300006b
:100138009001000090010000900100009001000073
:100148009001000090010000900100009a02000058
:100158009001000090010000900100009001000053
:100168009001000090010000c4020000900100000e
:100178009001000090010000900100009001000033
:100188009001000090010000900100009001000023
:100198009001000090010000900100009001000013
:1001a8009001000090010000900100009001000003
:1001b80090010000900100009001000090010000f3
:1001c80090010000900100009001000090010000e3
:1001d80090010000900100009001000090010000d3
:1001e80090010000900100009001000090010000c3
:0801f8009001000090010000dd
:020000040000fa
:100328000400fa00000f7800110798000d0007007c
:10033800110007005c0007000000eb003016880081
:100348000000eb0040168800004180001141800049
:100358005c000700101680000000e80010168800f6
:10036800f9ff37000000fa004400a9004580a90001
:100378000080fa00000006000200fa000000eb000e
:10038800000f7800070037001e007800c200dd006b
:10039800c0822000008140006000b8000089be00d3
:1003a8001e0fe8001e007800e30f5000f6ff34002f
:1003b8000080fa00000006000000fa00c602a8004b
:1003c8000203a9000103a90000e3a80001188000a6
:1003d80080ff2f00008060003000b3000018880004
:1003e8000000eb00301888000ae3a80051188000cc
:1003f80000fe2f00008060000020a0005018880038
:1004080001e3a8000080fa00000006000000fa00de
:1004180010208000e70060008057220000807000f4
:100428001020880030208000e7006000802b210029
:1004380000807000302088000be4a8000bc4a800de
:100448000ba4a9000b84a90051208000f03f2f00c5
:1004580000806000502088000b24a80051208000f4
:10046800f0f32f00008060005020880080002000fa
:10047800b02088000904a80041208000f0f32f0074
:1004880000806000402088000804a9000944a800f2
:10049800800020002020880080072000902088000d
:1004a8000080fa00000006000000fa00606d2000dd
:1004b800100888009460a80005e1a8000080fa00f0
:1004c800000006000400fa00008fbe001e01be00f6
:1004d8007000200001002000800f5100818f59001a
:1004e80003003c0080002000202088000d00370019
:1004f800703d2000110020001e01be00800f510039
:10050800818f590003003400703d200020208800ae
:10051800040037001e00be00bb0007002020880032
:10052800000000000080fa00000006003600f80015
:10053800809fbe00829fbe00849fbe00869fbe0033
:100548003400f80000002000a00188000000fa0034
:100558008560a900a9000700204188003141880072
:100568000080fa003400f9004f03be004f02be00bd
:100578004f01be004f00be003600f90000400600e3
:10058800809fbe00829fbe00849fbe00869fbe00e3
:10059800889fbe003400f80000002000a0018800f9
:1005a8000600fa008640a90002418000134180003d
:1005b80020418000314180000000510081805900b5
:1005c80010079800210798001e009000ae009000c8
:1005d800604188007141880030002000000f7800d9
:1005e8003b00370066418000774180001e0078009c
:1005f800c200dd0000802000008040001001be0025
:100608001e007800c200dd00c0822000008040008b
:100618001000be00009ab90004027800028cb900ec
:1006280088027800050242000010b800010242006a
:10063800840078000000530081805b0060418800de
:10064800714188001e007800c200dd000081200092
:10065800008040001001be001e007800c200dd00ce
:10066800c0822000008040001000be00009ab9003f
:1006780004027800028bb900860278000502420065
:100688000010b80001024200840078004241800056
:1006980053418000000041008180490040418800aa
:1006a800514188001e00e900c200dd00c082200020
:1006b800008040001000be001e017800c211dd005d
:1006c800c2822000028141000089be001e0fe9009d
:1006d8001e007800e00f5000c2ff3c0082408000fe
:1006e800934080006041800071418000009ab90009
:1006f80004027800028bb9008602780005024200e5
:100708000010b800010242008400780042418000d5
:100718005341800000004100818049004041880029
:10072800514188000080fa003400f9004f04be00ef
:100738004f03be004f02be004f01be004f00be0077
:1007480000400600809fbe00829fbe003400f80073
:1007580000002000a00188000000fa008460a900c1
:1007680002418000134180000000220001002000a7
:10077800800f5100818f590002003a0005e1a9005d
:1007880006003700004180001141800061004000f0
:10079800e080480000418800114188000080fa008c
:1007a8003400f9004f01be004f00be0000400600b3
:020000040000fa
:1007b8000008000024000000020000000100000002
:1007c80000feff00ffff0200000000000000000024
:1007d8000000000000000000000000000000000011
:1007e80000000000000008000000000024080000cd
:0c07f800180000000000000000000000dd
:020000040000fa
:10080400000080000119800000000600010078004b
:0408140000000600da
:00000001FF
